:100000000C9433090C944F090C944F090C944F092C
:100010000C944F090C944F090C944F090C944F0900
:100020000C944F090C944F090C9416100C947210F8
:100030000C944F090C944F090C944F090C944F09E0
:100040000C944F090C944F090C944F090C944F09D0
:100050000C944F090C944F090C944F090C944F09C0
:100060000C944F090C944F090C944F090C944F09B0
:100070000C944F090C944F090C944F090C944F09A0
:100080000C944F090C944F090C944F090C944F0990
:100090000C944F090C944F090C944F090C944F0980
:1000A0000C944F090C944F090C944F09F70DFF0D58
:1000B000050E0B0E110E170E1D0E230E0000380F2D
:1000C0005D0F380F380F380F380F380F380F00001A
:1000D000380F380F380F0000380F380F380F380F2F
:1000E000590F0000000000000000590F380F380FB2
:1000F000380F380F380F380F380F380F380F380FC8
:1001000000005D0F380F380F380F380F380F380FD9
:10011000380F380F380F380F380F380F0000000035
:10012000380F380F380F380F380F380F380F380F97
:10013000380F380F380F380F380F380F380F380F87
:10014000380F380F380F380F380F380F380F380F77
:10015000380F380F380F380F380F380F380F380F67
:10016000380F380F0000400F400F400F400F400F76
:10017000400F400F400F400F400F400F400F000056
:10018000380F380F380F380F400F00000000000004
:100190000000400F400F400F400F400F380FA30FDB
:1001A000380FA30F380F380F400F400FA30F380F31
:1001B000380F380F380F400F400F380FA30FA30F21
:1001C000A30F380F00000000380FA30FA30F380F44
:1001D000380F400F400FA30FA30FA30FA30FA30FC0
:1001E000400F400FA30FA30F380F380F380F400FE9
:1001F000400F400F400F400F400F400F400F400F87
:10020000400FA80FA80FA80F400F400F0000400F8D
:10021000400F380F400F400F400F400F400F400F6E
:10022000400F400F400F0000400F400F400F400FA5
:10023000400F0000000000000000400F400F400F82
:10024000400F400F380F380F380F380F380F380F66
:10025000400F400F380F380F380F380F380F380F56
:10026000400F380F380F380F380F380F00000000DC
:10027000380F380F380F380F380F400F400F380F36
:10028000380F380F380F380F400F400F380F380F26
:10029000380F380F380F400F400F400F400F400FFE
:1002A000400F400F400F0000380F380F380F380F45
:1002B000A30F400F0000000000000000000000003D
:1002C000000000000000000000000000000000002E
:1002D000000000000000000000000000000000001E
:1002E000000000000000000000000000000000000E
:1002F00000000000000000000000000000000000FE
:100740000000000000000000000000000000380F62
:100750005D0F380F380F380F380F380F380FDC0D9A
:10076000380F380F380F0000380F380F380F380F98
:10077000590F0000000000000000590F380F380F1B
:10078000380F380F380F380F380F380F380F380F31
:10079000DC0D5D0F380F380F380F380F380F380F5A
:1007A000380F380F380F380F380F380F000000009F
:1007B000380F380F380F380F380F380F380F380F01
:1007C000380F380F380F380F380F380F380F380FF1
:1007D000380F380F380F380F380F380F380F380FE1
:1007E000380F380F380F380F380F380F380F380FD1
:1007F000380F380F0000400F400F400F400F400FE0
:10080000400F400F400F400F400F400F400F0000BF
:10081000380F380F380F380F400F0000000000006D
:100820000000400F400F400F400F400F400FA30F3C
:10083000380FA30F380F380F400F400FA30F380F9A
:10084000380F380F380F400F400F380FA30FA30F8A
:10085000A30F380F00000000380FA30FA30F380FAD
:10086000380F400F400FA30FA30FA30FA30FA30F29
:10087000400F400FA30FA30F380F380F380F400F52
:10088000400F400F400F400F400F400F400F400FF0
:10089000400FA80FA80FA80F400F400F0000400FF7
:1008A000400F400F400F400F400F400F400F400FD0
:1008B000400F400F400F0000400F400F400F400F0F
:1008C000400F0000000000000000400F400F400FEC
:1008D000400F400F400F380F380F380F380F380FC8
:1008E000400F400F380F380F380F380F380F400FB8
:1008F000400F380F380F380F380F380F0000000046
:10090000380F380F380F380F380F400F400F380F9F
:10091000380F380F380F380F400F400F380F380F8F
:10092000380F380F380F400F400F400F400F400F67
:10093000400F400F400F710F380F380F380F380F2E
:10094000A30F400F000000000000000000000000A6
:100950000000000000000000000000000000000097
:100960000000000000000000000000000000000087
:100970000000000000000000000000000000000077
:100980000000000000000000000000000000000067
:100DD00000000000000000000000000000E2022906
:100DE000282B2C494C002C282A004A4D4B4E010040
:100DF000000000015152504FE31D1B06190500026F
:100E00000E10363738E7E1041516170700000B11EE
:100E1000080C12E5E0141A09130A2E2D0D0F181CE8
:100E200033E4351E1F2021222F302324252627318D
:100E30000000000000000000000000000000504F13
:100E40005251000000000000000000000031312D70
:100E50002A2B0000355152504F000034342F302ED1
:100E600000005726272F3000001E1F2021220000DF
:100E70002324555635000000000000000000000249
:100E8000000300000000000000000000000000005F
:100E90000000000000000000000000000000000052
:100EA000003A3B3C3D7F000036595A5B6300003EF0
:100EB0003F4041810000675C5D5E62000042434448
:100EC00045800000565F6061570000000000000090
:100ED00000000053555422000000000000000000F4
:100EE0000000000000000000000000000000000002
:100EF00000000000000000000000000000000000F2
:100F000000000000000000000000000000000000E1
:100F100000000000000000000000000000000000D1
:1011200000000000000100004C121200020000B993
:10113000113B00210000CB1109002200000D123FDD
:1011400000210100E4110900220100F4111900033B
:101150000000B51104010309049B111802030904DE
:1011600063113636034500720067006F0044006F5C
:1011700000780020006500720067006F006E006F4D
:10118000006D006900630020006B0065007900625B
:10119000006F006100720064000000180375006EAB
:1011A00000730070006500630069006600690065F7
:1011B00000640000000403090409023B000201006E
:1011C000C0320904000001030101000921110100DE
:1011D00001223F000705810308000A0904010001FC
:1011E00003000000092111010001221900070582F6
:1011F0000308000A050C0901A10185031501269CBD
:101200000219012A9C02751095018100C00501098F
:1012100006A10175019508050719E029E7150025C4
:10122000018102950175088103950575010508196D
:10123000012905910295017503910395067508151D
:101240000025680507190029688100C01201000205
:1012500000000020501D286000010102000101C1B2
:101260000601C106000011241FBECFEFDAE0DEBF89
:10127000CDBF11E0A0E0B1E0E0E4F4E202C00590EF
:101280000D92A832B107D9F722E0A8E2B1E001C07F
:101290001D92A93DB207E1F7D3D00C941E120C9415
:1012A000000020912801281760F030E0281B310948
:1012B000F901EE0FFF1FE20FF31FED56FD4F808186
:1012C000089580E0089520912801281760F030E00B
:1012D000281B3109F901EE0FFF1FE20FF31FED5636
:1012E000FD4F8281089580E00895E1E0F1E021E082
:1012F00030E09191911117C0F901E050FF4F91E05A
:101300009083409128014F5F4093280150E0FA01FB
:10131000EE0FFF1FE40FF51FED56FD4F8083218375
:101320006283822F08952F5F3F4F2431310509F7E3
:1013300080E008956091280191E06917F0F1292F6C
:1013400030E0F901EE0FFF1FE20FF31FED56FD4FE6
:101350002181281330C09617D0F4292F30E0A9013D
:101360004F5F5F4FDA01AA0FBB1FA40FB51FAD5629
:10137000BD4F4C91F901EE0FFF1FE20FF31FED5629
:10138000FD4F408311962C9121839F5FE4CF262F40
:1013900030E0F901EE0FFF1FE20FF31FED56FD4F96
:1013A00010821182E82FF0E0E050FF4F1082615070
:1013B0006093280108959F5FC0CF08952091D102C6
:1013C0008091D40290919202E0919102222381F0C7
:1013D0002EE0E29FF001112424E5929FE00DF11D23
:1013E0001124E80FF11DEE0FFF1FE45BF84F0FC053
:1013F0002EE0E29FF001112424E5929FE00DF11D03
:101400001124E80FF11DEE0FFF1FE454FF4F8591EB
:101410009491009711F0FC01099580912801282FE3
:1014200030E0F901EE0FFF1FE20FF31FED56FD4F05
:101430009281923021F490913C0291117BCF0895DA
:10144000E6D08CE090E090938900809388009093A0
:101450008B0080938A0090938D0080938C00259A56
:10146000269A279A91D5A7D58823E9F38FE790E0AC
:1014700090938900809388002FE782E490E12150C7
:1014800080409040E1F700C000008FE790E090932B
:101490008B0080938A002FE782E490E12150804006
:1014A0009040E1F700C000008FE790E090938D003E
:1014B00080938C002FE782E490E12150804090409F
:1014C000E1F700C000002598269827988FE790E064
:1014D000909389008093880090938B0080938A007A
:1014E00090938D0080938C000EE080911401909178
:1014F00015012091160130911701309315012093A9
:10150000140190931701809316018DD010923B0225
:1015100080913B02863008F058C01092D202F090C1
:10152000D20210913B022DE02F1508F44AC0E09141
:101530001601F0911701019FC00111248F0D911D1B
:10154000E80FF91F20812093D102E0911401F0915E
:101550001501E80FF91F30813093CF02231759F19D
:10156000EC01C35CDD4F222341F080E09ADE8093E2
:10157000920288831092D00209C02881209392029F
:10158000FC01E75DFE4F80818093D00210939102B1
:10159000F092D4021092D30211DF8091D202E09136
:1015A0003B020E9FF0011124E80FF11DE75DFE4F95
:1015B0008091D00280838091D2028F5F8093D2028B
:1015C000AECF1F5F10933B02A3CFF8D413D78FE1A8
:1015D0009EE40197F1F700C000008091310280FF86
:1015E00002C0259A01C025988091310281FF02C076
:1015F000269A01C026988091310282FF02C0279A64
:1016000001C0279880913102809131026ECFC5D000
:10161000811105C01AD0882321F082E0089581E06D
:10162000089580E00895CF93DF93EC017FD181117D
:1016300006C0CE0135D0882321F082E003C081E0CE
:1016400001C080E0DF91CF910895CF9342D380E431
:101650005FD3C82F811120C080E05AD380E858D3CF
:101660008FEF56D34DD335D380E452D3C82F811199
:1016700013C08CE04DD380E84BD38FEF49D340D3D8
:1016800028D380E445D3C82F811106C084E140D31C
:101690008FEF3ED38FEF3CD333D38C2FCF91089570
:1016A0008F929F92BF92CF92DF92EF92FF920F9311
:1016B0001F93CF93DF931F92CDB7DEB77C01C5DFB9
:1016C000B82E882369F096E0F70187E011928150E7
:1016D000E9F791508EE0E80EF11C9111F5CF4FC063
:1016E00000E010E0CC24C394D12CF3D280E410D3DA
:1016F00082E10ED3C601002E01C0880F0A94EAF7DA
:10170000809506D3FDD2E5D280E402D383E100D3F5
:10171000E0D281E4FDD2CE01019618D3F1D28981C5
:10172000882E912C60E070E045E050E0D701A00FDA
:10173000B11FFD01E60FF71F9401042E02C035957D
:1017400027950A94E2F72170332781E0282721703A
:10175000208341505109625F7F4F4F3F8FEF580701
:1017600041F70F5F1F4F0730110509F0BECFB1D20F
:1017700080E4CED282E1CCD28FEFCAD2C1D28B2DFF
:101780000F90DF91CF911F910F91FF90EF90DF901D
:10179000CF90BF909F908F900895E1E6F0E080E8B1
:1017A0008083108256985E9824982C9825982698C5
:1017B000279889EA8093800089E08093810080D215
:1017C0003F9885E08A95F1F70000579885E08A9563
:1017D000F1F70000549885E08A95F1F700005598DC
:1017E00085E08A95F1F700006E9885E08A95F1F71B
:1017F0000000479A85E08A95F1F700005F9A85E03E
:101800008A95F1F700005C9A85E08A95F1F700006F
:101810005D9A85E08A95F1F70000769A85E08A95D1
:10182000F1F70000879885E08A95F1F70000869827
:1018300085E08A95F1F70000859885E08A95F1F7B3
:101840000000849885E08A95F1F70000819885E092
:101850008A95F1F70000809885E08A95F1F70000FD
:10186000209885E08A95F1F70000219885E08A9517
:10187000F1F70000229885E08A95F1F7000023989F
:1018800085E08A95F1F70000529885E08A95F1F796
:101890000000539885E08A95F1F700003E9885E0B6
:1018A0008A95F1F700008F9A85E08A95F1F700009C
:1018B0008E9A85E08A95F1F700008D9A85E08A95E9
:1018C000F1F700008C9A85E08A95F1F70000899A7B
:1018D00085E08A95F1F70000889A85E08A95F1F70E
:1018E0000000289885E08A95F1F70000299885E0A6
:1018F0008A95F1F700002A9885E08A95F1F70000B3
:101900002B9885E08A95F1F700005A9885E08A9532
:10191000F1F700005B9885E08A95F1F700004698A2
:1019200085E08A95F1F7000080E00895FC01209A97
:1019300085E08A95F1F700008FB18095881F882790
:10194000881F87838FB191E086FB882780F98927DC
:10195000858B8FB185FB882780F9892783A38FB179
:1019600082958170892781AB8FB186958170892797
:1019700087AF8FB1DF01AA5BBF4F817089271796B0
:101980008C931797209885E08A95F1F70000219AAB
:1019900085E08A95F1F700008FB18095881F882730
:1019A000881F80878FB186FB882780F98927868BDF
:1019B0008FB185FB882780F9892784A38FB1829511
:1019C0008170892782AB8FB11697869581708927A0
:1019D0008C938FB116968170892718968C931897DF
:1019E000219885E08A95F1F70000229A85E08A9592
:1019F000F1F700008FB18095881F8827881F8187A5
:101A00008FB186FB882780F98927878B8FB185FB6B
:101A1000882780F9892785A38FB1829581708927CE
:101A200083AB8FB115978695817089278C938FB181
:101A300015968170892719968C931997229885E0BD
:101A40008A95F1F70000239A85E08A95F1F7000066
:101A50008FB18095881F8827881F82878FB186FB6A
:101A6000882780F98927808F8FB185FB882780F9A7
:101A7000892786A38FB182958170892784AB8FB126
:101A800014978695817089278C938FB114968170F5
:101A900089271A968C931A97239885E08A95F1F7EF
:101AA0000000529A85E08A95F1F700008FB1809589
:101AB000881F8827881F83878FB186FB882780F936
:101AC0008927818F8FB185FB882780F9892787A394
:101AD0008FB182958170892785AB8FB113978695D9
:101AE000817089278C938FB11396817089271B96FB
:101AF0008C931B97529885E08A95F1F70000539AD2
:101B000085E08A95F1F700008FB18095881F8827BE
:101B1000881F84878FB186FB882780F98927828F69
:101B20008FB185FB882780F9892780A78FB182959F
:101B30008170892786AB8FB112978695817089272E
:101B40008C938FB11296817089271C968C931C9769
:101B5000539885E08A95F1F700003E9A85E08A95D2
:101B6000F1F700008FB18095881F8827881F85872F
:101B70008FB186FB882780F98927838F8FB185FBFA
:101B8000882780F9892781A78FB18295817089275D
:101B900087AB8FB111978695817089278C938FB110
:101BA000EA5BFF4F8170892785873E9885E08A959B
:101BB000F1F7000080E008957ED181D182D183D1F8
:101BC00084D185D186D187D188D189C1962F6623CA
:101BD00009F45AC0462F50E0FA01E05EF109E830FE
:101BE000F105B8F5EA5AFF4F9091390221C48823D4
:101BF00011F0916001C09E7F90933902089588236F
:101C000011F09260F9CF9D7FF7CF882311F0946097
:101C1000F3CF9B7FF1CF882311F09860EDCF977FB2
:101C2000EBCF882311F09061E7CF9F7EE5CF88232B
:101C300011F09062E1CF9F7DDFCF882311F0906497
:101C4000DBCF9F7BD9CF882311F09068D5CF9F77CA
:101C5000D3CFE3E3F2E020E030E04081882339F0A5
:101C600041110CC0F901ED5CFD4F908308954913BB
:101C700005C0F901ED5CFD4F108208952F5F3F4FC5
:101C800031962630310549F70895E62FF0E0EE0F42
:101C9000FF1FE65EFE4F20813181882329F03093BB
:101CA000D6022093D50208958091D5029091D60254
:101CB0002817390721F41092D6021092D502089500
:101CC000E9EBF0E080818C7F808388E48093B8002A
:101CD000089584EA8093BC008091BC0087FFFCCF0C
:101CE0008091B900887F883049F08091B900887F61
:101CF000803121F08091B900887F089580E00895B7
:101D000084E98093BC008091BC0084FDFCCF0895E1
:101D10008093BB0084E88093BC008091BC0087FF67
:101D2000FCCF8091B900887F883171F08091B90033
:101D3000887F883249F08091B900887F803421F013
:101D40008091B900887F089580E0089524EC209365
:101D5000BC002091BC0027FFFCCF2091BB00FC0100
:101D600020838091B900887F803521F08091B9006F
:101D7000887F089580E00895CF93DF93C82FD0E047
:101D8000CB5DDD4F8881882311F0D4DA1882DF9192
:101D9000CF9108950F931F93CF93DF93C82F809116
:101DA000D40290919202E09191022EE0E29FF00124
:101DB000112424E5929FE00DF11D1124E80FF11D7F
:101DC000E452F24F14918091D1028823F1F080E027
:101DD00068DAD82F80E077DA082F8C2FCDDFDC137C
:101DE00004C0023049F563E020C00150023010F415
:101DF0008D2FC2DF61E0812F78DAEC2FF0E0EB5D10
:101E0000FD4F808310923C0217C080E04ADAD82F41
:101E100080E059DADC1310C0813071F48D2FACDF13
:101E200080913C02811108C062E0812F5EDAED2FC3
:101E3000F0E0EB5DFD4F8083DF91CF911F910F911B
:101E400008958091D40290919202E09191022EE047
:101E5000E29FF001112424E5929FE00DF11D112471
:101E6000E80FF11DE452F24F64918091D102AECEA1
:101E70008091D002811103C081E080933C02E1CFC8
:101E800081E08093D0028091D3028F5F8093D30250
:101E900008DA809392029091D402E09191022EE0B0
:101EA000E29FF0011124E90FF11DE35CFD4F8083F7
:101EB00085CA81E06FCF81E05FCF82E06BCF82E0A7
:101EC0005BCF83E059CF84E057CF85E055CF86E0E4
:101ED00053CF87E051CF88E04FCF89E04DCF8AE0E4
:101EE0004BCFF89481E08093E00080E28093D800AB
:101EF0001092C9008FE19EE40197F1F700C0000045
:101F00001DBA109268001CBC10BE1FBA10927A0055
:101F100010926E0010926F00109271001092720079
:101F20001092C900ECEBF0E0108214B817B81AB8A0
:101F30001DB810BA108215B818B81BB81EB811BA5F
:101F40000C94003F089561EE8091D1023FDE90CF66
:101F50008091D40290919202E09191022EE0E29F52
:101F6000F001112424E5929FE00DF11D1124E80FEA
:101F7000F11DE452F24F64918091D10286CE80919E
:101F8000E80080FFFCCF089581E08093D70080EACD
:101F90008093D80082E189BD09B400FEFDCF80E9BD
:101FA0008093D8001092E00010923A028CE0809367
:101FB000E2007894089580913A02089580913A025F
:101FC000811102C08FEF08958FB7F89491E090933C
:101FD000E9009091E4009E5C21E03091E80035FD3D
:101FE0000EC08FBF80913A02882361F38091E40094
:101FF000891741F38FB7F8942093E900EECF9091C1
:1020000039029093F1001092F100E3E3F2E0919134
:102010009093F10092E0E933F907C9F79AE39093BE
:10202000E800109232028FBF80E008951F920F9255
:102030000FB60F9211248F939F93EF93FF9380918C
:10204000E1001092E10083FF0FC01092E90091E0DF
:102050009093EB001092EC0092E29093ED0098E0E8
:102060009093F00010923A0282FF33C080913A02BE
:10207000882379F180911801882359F180913002E9
:102080008F5F80933002837021F581E08093E900B7
:102090008091E80085FF1DC0809132028F5F8093A0
:1020A000320290911801891314C01092320280916B
:1020B00039028093F1001092F100E3E3F2E08191A4
:1020C0008093F10082E0E933F807C9F78AE380934F
:1020D000E800FF91EF919F918F910F900FBE0F90AD
:1020E0001F9018951F920F920FB60F921124EF9226
:1020F000FF920F931F932F933F934F935F936F9391
:102100007F938F939F93AF93BF93EF93FF93CF935F
:10211000DF931F92CDB7DEB71092E9008091E800FF
:1021200083FF20C19091F1008091F1003091F10086
:102130002091F100E32EF12CF22A0091F100209180
:10214000F10010E0122B2091F1006091F10032EFCC
:102150003093E800863009F046C039E084E291E12E
:10216000FC01459154914E155F0539F4FC013296FE
:10217000459154914017510721F00796315081F74E
:10218000F1C0FC01349645915491FC01369684913E
:1021900030E0362B2F3F310519F010F02FEF30E0F3
:1021A000281708F4822F3EEF9091E800292F257020
:1021B000D9F392FDDAC0982F813208F090E2FA014B
:1021C000292F222331F064916093F1002150319640
:1021D000F8CF490F511D891B3093E8008111E4CFDE
:1021E000903211F3C2C0853049F48EEF8093E8003D
:1021F000C6DE8E2D80688093E300B7C0893039F544
:10220000911145C0E0923A028EEF8093E80041E0E0
:102210008EE592E14093E9009C012F5F3F4FFC0166
:1022200054915093EB00552359F0F90124912093D8
:10223000EC009C012D5F3F4F319684918093ED001F
:102240004F5F453011F0C901E5CF8EE141C08830C4
:1022500039F4903809F041C092DE80913A0260C0B2
:10226000811115C099838BDE9981923851F40093C6
:10227000E9008091EB0085FB882780F91092E90046
:1022800001C080E08093F1001092F10067C0282F18
:102290002D7F213011F5923001F5EF2809F062C051
:1022A0000F779FEF900F943008F05CC09EEF9093F3
:1022B000E8000093E900833009F454C089E1809379
:1022C000EB0081E090E0002E01C0880F0A94EAF74D
:1022D0008093EA001092EA0048C0012B09F042C046
:1022E000913A09F5813089F44ADE80913902809370
:1022F000F1001092F100E3E3F2E081918093F100AC
:1023000082E0E933F807C9F729C0823021F437DECB
:102310008091180105C0833029F531DE80911901C3
:102320008093F1001BC09132E9F4893061F480910F
:10233000E80082FFFCCF8091F100809331028BEFA7
:102340008093E8000BC08A3029F4F09218011092B3
:10235000320204C08B3031F4E09219018EEF809389
:10236000E80003C081E28093EB000F90DF91CF91F2
:10237000FF91EF91BF91AF919F918F917F916F915D
:102380005F914F913F912F911F910F91FF90EF908F
:102390000F900FBE0F901F90189590913A029111D7
:1023A00002C08FEF08959FB7F89422E02093E900D0
:1023B0002091E4002E5C32E04091E80045FD0EC023
:1023C0009FBF90913A02992361F39091E400921794
:1023D00041F39FB7F8943093E900EECF8093F1007A
:1023E0006093F1007093F1008AE38093E8009FBF4F
:1023F00080E008956091D5027091D6028091D70255
:102400009091D8026817790781F083E0C6DF992799
:1024100087FD9095009759F42091D5023091D6020E
:102420003093D8022093D702089580E090E0089579
:10243000EE0FFF1F0590F491E02D0994F894FFCF63
:10244000010000000000000000000000000000008B
:10245000000000007D01D1017D01CD00B700B60074
:08246000B500E200E900EA000A
:00000001FF
